:04000000FEEF7FF0A0
:10DE0E003ADE6EDE24DE50DE59EC6FF092EC6FF0EF
:10DE1E0046EC6FF01200C08CC08CC08CC09CC09CB5
:10DE2E00C09CC09CC09CC09CC09C1200C08AC08A72
:10DE3E00C08AC09AC09AC09AC09AC09AC09AC09A14
:10DE4E001200C08CC08CC08CC08CC08CC08CC08C9E
:10DE5E00C09CC09CC09CC09CC09CC09CC09C12001E
:10DE6E00C08AC08AC08AC08AC08AC08AC08AC09A44
:10DE7E00C09AC09AC09AC09AC09AC09A1200200E38
:10DE8E000001AD6F000EAF6F010EB36F020EB16FDA
:10DE9E00000EB06FB2A156EF6FF058EF6FF051EF6A
:10DEAE006FF01200000E0001606F000E616F000E29
:10DEBE00626F000E636F000E646F000E656F000ED2
:10DECE00666F000E676F000E686F12000E0EF66E14
:10DEDE00DE0EF76E000EF86E01EE31F110EE08F068
:10DEEE000900F5C4EEF4E550E150FAE108EE40F118
:10DEFE0010EEC0F3EE6AE550E150FCE1E250FAE1BB
:10DF0E0001EE28F1090EEE6AE806FDE1000EF86E4C
:10DF1E000001B9EF6FF0000EBE6E000EBF6E000E68
:10DF2E00C06E080ECA6EC668C768C868040110695C
:10DF3E000869FE0E006F000E216F000E096F000EB5
:10DF4E00016F000E116F000E026F000E0A6F000EB1
:10DF5E00126F03690B69136904690C691469080E61
:10DF6E00246F12000BEC6FF0C898C89CC89AC6803C
:10DF7E00CEB0C4EF6FF0C8EF6FF0266A262AC9EF55
:10DF8E006FF0266A2650286E296AD0EF6FF0B4EC37
:10DF9E0079F0CEB0D5EF6FF0D8EF6FF0010ED9EF6C
:10DFAE006FF0000E266E276A2850261809E12950B8
:10DFBE002718D8B4E5EF6FF0E7EF6FF0CEEF6FF004
:10DFCE00CEB0ECEF6FF0F0EF6FF0266A262AF1EF8D
:10DFDE006FF0266A2650286E296AF8EF6FF00FEC64
:10DFEE0072F0CEB0FDEF6FF000EF70F0010E01EFAA
:10DFFE0070F0000E266E276A2850261809E1295067
:10E00E002718D8B40DEF70F00FEF70F0F6EF6FF039
:10E01E00CEB014EF70F018EF70F0266A262A19EFC2
:10E02E0070F0266A2650286E296A20EF70F048ECB0
:10E03E0070F0CEB025EF70F028EF70F0010E29EFE2
:10E04E0070F0000E266E276A2850261809E1295016
:10E05E002718D8B435EF70F037EF70F01EEF70F070
:10E06E00CEB03CEF70F040EF70F0266A262A41EFFA
:10E07E0070F0266A2650286E296AD0EF6FF0FEEFF8
:10E08E007FF0CEB04DEF70F050EF70F0010E51EF0B
:10E09E0070F0000E086E096A2850081809E1295020
:10E0AE000918D8B45DEF70F05FEF70F061EF70F0AB
:10E0BE000EEF72F0000E0B6E000E0A6E000E026E68
:10E0CE00000E016E000E046E000E036E000E066E44
:10E0DE000568D6EC73F0000E026E000E016E000E97
:10E0EE00046E000E036E000E066E0568D6EC73F01D
:10E0FE00000E026E000E016E000E046E000E036E18
:10E10E00000E066E0568D6EC73F0000E026EBA0EA7
:10E11E00016E000E046E0368000E066E0568D6ECE6
:10E12E0073F0000E026EBA0E016E000E046E0368DE
:10E13E00000E066E0568D6EC73F0000E026EBA0E77
:10E14E00016E000E046E0368000E066E0568D6ECB6
:10E15E0073F00A4A0B2A0BBEBEEF70F00B5009E1AA
:10E16E00230E0A5CD8A0BEEF70F0C0EF70F065EF22
:10E17E0070F0000E0D6E000E0C6E000E026EBA0EDA
:10E18E00016E000E046E0368000E066E0568C5EC87
:10E19E0076F0000E026EBA0E016E000E046E03686B
:10E1AE00000E066E0568C5EC76F0000E026EBA0E15
:10E1BE00016E000E046E0368000E066E0568C5EC57
:10E1CE0076F0000E026E000E016E000E046E000E52
:10E1DE00036E000E066E0568C5EC76F0000E026E3C
:10E1EE00000E016E000E046E000E036E000E066E23
:10E1FE000568C5EC76F0000E026E000E016E000E84
:10E20E00046E000E036E000E066E0568C5EC76F009
:10E21E000C4A0D2A0DBE1DEF71F00D5009E10A0ECC
:10E22E000C5CD8A01DEF71F01FEF71F0C4EF70F011
:10E23E00080E096E9D0E086E060EE82EFED7082EED
:10E24E00FCD7092EFAD7CEB02FEF71F032EF71F066
:10E25E00010E33EF71F0000E086E096A285008188F
:10E26E0009E129500918D8B43FEF71F041EF71F070
:10E27E0043EF71F00EEF72F0000E0F6E000E0E6E89
:10E28E00000E026EBA0E016E000E046E0368000ED2
:10E29E00066E0568D6EC73F0000E026EBA0E016EB5
:10E2AE00000E046E0368000E066E0568D6EC73F061
:10E2BE00000E026EBA0E016E000E046E0368000EA2
:10E2CE00066E0568D6EC73F0000E026E000E016E3F
:10E2DE00000E046E000E036E000E066E0568D6EC80
:10E2EE0073F0000E026E000E016E000E046E000E34
:10E2FE00036E000E066E0568D6EC73F0000E026E0D
:10E30E00000E016E000E046E000E036E000E066E01
:10E31E000568D6EC73F00E4A0F2A0FBEA0EF71F00F
:10E32E000F5009E10A0E0E5CD8A0A0EF71F0A2EF1B
:10E33E0071F047EF71F0000E116E000E106E000EB0
:10E34E00026E000E016E000E046E000E036E000EC5
:10E35E00066E0568C5EC76F0000E026E000E016EBC
:10E36E00000E046E000E036E000E066E0568C5EC00
:10E37E0076F0000E026E000E016E000E046E000EA0
:10E38E00036E000E066E0568C5EC76F0000E026E8A
:10E39E00BA0E016E000E046E0368000E066E05685E
:10E3AE00C5EC76F0000E026EBA0E016E000E046E13
:10E3BE000368000E066E0568C5EC76F0000E026E60
:10E3CE00BA0E016E000E046E0368000E066E05682E
:10E3DE00C5EC76F0104A112A11BEFFEF71F0115004
:10E3EE0009E10A0E105CD8A0FFEF71F001EF72F098
:10E3FE00A6EF71F0080E096E9D0E086E060EE82E41
:10E40E00FED7082EFCD7092EFAD748EF70F012006F
:10E41E00CEB014EF72F017EF72F0010E18EF72F02B
:10E42E00000E086E096A2850081809E129500918CB
:10E43E00D8B424EF72F026EF72F028EF72F0D5EF19
:10E44E0073F0000E0B6E000E0A6E000E026E016867
:10E45E00000E046E000E036E000E066E000E056EAC
:10E46E00D6EC73F0000E026E0168000E046E000E04
:10E47E00036E000E066E000E056ED6EC73F0000EE7
:10E48E00026E0168000E046E000E036E000E066E24
:10E49E00000E056ED6EC73F0000E026E0168000ED3
:10E4AE00046E0368000E066E000E056ED6EC73F059
:10E4BE00000E026E0168000E046E0368000E066EFA
:10E4CE00000E056ED6EC73F0000E026E0168000EA3
:10E4DE00046E0368000E066E000E056ED6EC73F029
:10E4EE000A4A0B2A0BBE85EF72F00B5009E10A0E99
:10E4FE000A5CD8A085EF72F087EF72F02CEF72F005
:10E50E00000E0D6E000E0C6E000E026E0168000EF7
:10E51E00046E0368000E066E000E056EC5EC76F0F6
:10E52E00000E026E0168000E046E0368000E066E89
:10E53E00000E056EC5EC76F0000E026E0168000E40
:10E54E00046E0368000E066E000E056EC5EC76F0C6
:10E55E00000E026E0168000E046E000E036E000EB9
:10E56E00066E000E056EC5EC76F0000E026E0168AA
:10E57E00000E046E000E036E000E066E000E056E8B
:10E58E00C5EC76F0000E026E0168000E046E000EF1
:10E59E00036E000E066E000E056EC5EC76F00C4A8C
:10E5AE000D2A0DBEE4EF72F00D5009E10A0E0C5C5F
:10E5BE00D8A0E4EF72F0E6EF72F08BEF72F0080E77
:10E5CE00096E9D0E086E060EE82EFED7082EFCD79D
:10E5DE00092EFAD7CEB0F6EF72F0F9EF72F0010E07
:10E5EE00FAEF72F0000E086E096A2850081809E159
:10E5FE0029500918D8B406EF73F008EF73F00AEF3C
:10E60E0073F0D5EF73F0000E0F6E000E0E6E000E4F
:10E61E00026E0168000E046E0368000E066E000E98
:10E62E00056ED6EC73F0000E026E0168000E046EDD
:10E63E000368000E066E000E056ED6EC73F0000E2B
:10E64E00026E0168000E046E0368000E066E000E68
:10E65E00056ED6EC73F0000E026E0168000E046EAD
:10E66E00000E036E000E066E000E056ED6EC73F0F5
:10E67E00000E026E0168000E046E000E036E000E98
:10E68E00066E000E056ED6EC73F0000E026E01687B
:10E69E00000E046E000E036E000E066E000E056E6A
:10E6AE00D6EC73F00E4A0F2A0FBE67EF73F00F50C1
:10E6BE0009E10A0E0E5CD8A067EF73F069EF73F0F4
:10E6CE000EEF73F0000E116E000E106E000E026E45
:10E6DE000168000E046E000E036E000E066E000E34
:10E6EE00056EC5EC76F0000E026E0168000E046E2B
:10E6FE00000E036E000E066E000E056EC5EC76F073
:10E70E00000E026E0168000E046E000E036E000E07
:10E71E00066E000E056EC5EC76F0000E026E0168F8
:10E72E00000E046E0368000E066E000E056EC5EC3C
:10E73E0076F0000E026E0168000E046E0368000E85
:10E74E00066E000E056EC5EC76F0000E026E0168C8
:10E75E00000E046E0368000E066E000E056EC5EC0C
:10E76E0076F0104A112A11BEC6EF73F0115009E16E
:10E77E000A0E105CD8A0C6EF73F0C8EF73F06DEF01
:10E78E0073F0080E096E9D0E086E060EE82EFED76B
:10E79E00082EFCD7092EFAD70FEF72F0120003C520
:10E7AE002FF501C530F505C52EF52FB0E1EF73F04D
:10E7BE00E5EF73F0076A072AE6EF73F0076A075072
:10E7CE00020D350EF324D96E050EF420DA6E02D842
:10E7DE00FBEF73F00500FA6EDE50FD6EDE50FE6E3E
:10E7EE00F850FF6EFA5012002FB200EF74F004EFE3
:10E7FE0074F0076A072A05EF74F0076A0750020DD6
:10E80E00350EF324D96E050EF420DA6E02D81AEF07
:10E81E0074F00500FA6EDE50FD6EDE50FE6EF8509E
:10E82E00FF6EFA5012002FB41FEF74F023EF74F046
:10E83E00076A072A24EF74F0076A0750020D350E97
:10E84E00F324D96E050EF420DA6E02D839EF74F087
:10E85E000500FA6EDE50FD6EDE50FE6EF850FF6E55
:10E86E00FA5012002FB63EEF74F042EF74F0076AC2
:10E87E00072A43EF74F0076A0750020D350EF32492
:10E88E00D96E050EF420DA6E02D858EF74F005003A
:10E89E00FA6EDE50FD6EDE50FE6EF850FF6EFA50D0
:10E8AE0012002FB85DEF74F061EF74F0076A072A5B
:10E8BE0062EF74F0076A0750020D350EF324D96E1D
:10E8CE00050EF420DA6E02D877EF74F00500FA6EBA
:10E8DE00DE50FD6EDE50FE6EF850FF6EFA501200E6
:10E8EE002FBA7CEF74F080EF74F0076A072A81EF7D
:10E8FE0074F0076A0750020D350EF324D96E050E1B
:10E90E00F420DA6E02D896EF74F00500FA6EDE503F
:10E91E00FD6EDE50FE6EF850FF6EFA5012002FBCE8
:10E92E009BEF74F09FEF74F0076A072AA0EF74F064
:10E93E00076A0750020D350EF324D96E050EF4202A
:10E94E00DA6E02D8B5EF74F00500FA6EDE50FD6E89
:10E95E00DE50FE6EF850FF6EFA5012002FBEBAEF68
:10E96E0074F0BEEF74F0076A072ABFEF74F0076AFF
:10E97E000750020D350EF324D96E050EF420DA6E13
:10E98E0002D8D4EF74F00500FA6EDE50FD6EDE5044
:10E99E00FE6EF850FF6EFA50120030B0D9EF74F0E0
:10E9AE00DDEF74F0076A072ADEEF74F0076A07508E
:10E9BE00020D350EF324D96E050EF420DA6E02D850
:10E9CE00F3EF74F00500FA6EDE50FD6EDE50FE6E53
:10E9DE00F850FF6EFA50120030B2F8EF74F0FCEF00
:10E9EE0074F0076A072AFDEF74F0076A0750020DEC
:10E9FE00350EF324D96E050EF420DA6E02D812EF1E
:10EA0E0075F00500FA6EDE50FD6EDE50FE6EF850AB
:10EA1E00FF6EFA50120030B417EF75F01BEF75F061
:10EA2E00076A072A1CEF75F0076A0750020D350EAC
:10EA3E00F324D96E050EF420DA6E02D831EF75F09C
:10EA4E000500FA6EDE50FD6EDE50FE6EF850FF6E63
:10EA5E00FA50120030B636EF75F03AEF75F0076ADD
:10EA6E00072A3BEF75F0076A0750020D350EF324A7
:10EA7E00D96E050EF420DA6E02D850EF75F005004F
:10EA8E00FA6EDE50FD6EDE50FE6EF850FF6EFA50DE
:10EA9E00120030B855EF75F059EF75F0076A072A76
:10EAAE005AEF75F0076A0750020D350EF324D96E32
:10EABE00050EF420DA6E02D86FEF75F00500FA6ECF
:10EACE00DE50FD6EDE50FE6EF850FF6EFA501200F4
:10EADE0030BA74EF75F078EF75F0076A072A79EFA0
:10EAEE0075F0076A0750020D350EF324D96E050E28
:10EAFE00F420DA6E02D88EEF75F00500FA6EDE5055
:10EB0E00FD6EDE50FE6EF850FF6EFA50120030BCF5
:10EB1E0093EF75F097EF75F0076A072A98EF75F087
:10EB2E00076A0750020D350EF324D96E050EF42038
:10EB3E00DA6E02D8ADEF75F00500FA6EDE50FD6E9E
:10EB4E00DE50FE6EF850FF6EFA50120030BEB2EF7D
:10EB5E0075F0B6EF75F0076A072AB7EF75F0076A1A
:10EB6E000750020D350EF324D96E050EF420DA6E21
:10EB7E0002D8CCEF75F00500FA6EDE50FD6EDE5059
:10EB8E00FE6EF850FF6EFA5012002EB0D1EF75F0F7
:10EB9E00D5EF75F0076A072AD6EF75F0076A0750AA
:10EBAE00020D350EF324D96E050EF420DA6E02D85E
:10EBBE00EBEF75F00500FA6EDE50FD6EDE50FE6E68
:10EBCE00F850FF6EFA5012002EB2F0EF75F0F4EF1F
:10EBDE0075F0076A072AF5EF75F0076A0750020D00
:10EBEE00350EF324D96E050EF420DA6E02D80AEF34
:10EBFE0076F00500FA6EDE50FD6EDE50FE6EF850B9
:10EC0E00FF6EFA5012002EB40FEF76F013EF76F07F
:10EC1E00076A072A14EF76F0076A0750020D350EC1
:10EC2E00F324D96E050EF420DA6E02D829EF76F0B1
:10EC3E000500FA6EDE50FD6EDE50FE6EF850FF6E71
:10EC4E00FA5012002EB62EEF76F032EF76F0076AFB
:10EC5E00072A33EF76F0076A0750020D350EF324BC
:10EC6E00D96E050EF420DA6E02D848EF76F0050064
:10EC7E00FA6EDE50FD6EDE50FE6EF850FF6EFA50EC
:10EC8E0012002EB84DEF76F051EF76F0076A072A94
:10EC9E0052EF76F0076A0750020D350EF324D96E47
:10ECAE00050EF420DA6E02D867EF76F00500FA6EE4
:10ECBE00DE50FD6EDE50FE6EF850FF6EFA50120002
:10ECCE002EBA6CEF76F070EF76F0076A072A71EFC6
:10ECDE0076F0076A0750020D350EF324D96E050E35
:10ECEE00F420DA6E02D886EF76F00500FA6EDE506A
:10ECFE00FD6EDE50FE6EF850FF6EFA5012002EBC06
:10ED0E008BEF76F08FEF76F0076A072A90EF76F0AA
:10ED1E00076A0750020D350EF324D96E050EF42046
:10ED2E00DA6E02D8A5EF76F00500FA6EDE50FD6EB3
:10ED3E00DE50FE6EF850FF6EFA5012002EBEAAEF95
:10ED4E0076F0AEEF76F0076A072AAFEF76F0076A35
:10ED5E000750020D350EF324D96E050EF420DA6E2F
:10ED6E0002D8C4EF76F00500FA6EDE50FD6EDE506E
:10ED7E00FE6EF850FF6EFA501200120003C52FF50A
:10ED8E0001C530F505C52EF52FB0D0EF76F0D4EFD6
:10ED9E0076F0076A072AD5EF76F0076A0750020D5C
:10EDAE00310EF324D96E050EF420DA6E02D8EAEF96
:10EDBE0076F00500FA6EDE50FD6EDE50FE6EF850F7
:10EDCE00FF6EFA5012002FB2EFEF76F0F3EF76F0FF
:10EDDE00076A072AF4EF76F0076A0750020D310E24
:10EDEE00F324D96E050EF420DA6E02D809EF77F00F
:10EDFE000500FA6EDE50FD6EDE50FE6EF850FF6EB0
:10EE0E00FA5012002FB40EEF77F012EF77F0076A78
:10EE1E00072A13EF77F0076A0750020D310EF3241D
:10EE2E00D96E050EF420DA6E02D828EF77F00500C1
:10EE3E00FA6EDE50FD6EDE50FE6EF850FF6EFA502A
:10EE4E0012002FB62DEF77F031EF77F0076A072A11
:10EE5E0032EF77F0076A0750020D310EF324D96EA8
:10EE6E00050EF420DA6E02D847EF77F00500FA6E41
:10EE7E00DE50FD6EDE50FE6EF850FF6EFA50120040
:10EE8E002FB84CEF77F050EF77F0076A072A51EF63
:10EE9E0077F0076A0750020D310EF324D96E050E76
:10EEAE00F420DA6E02D866EF77F00500FA6EDE50C7
:10EEBE00FD6EDE50FE6EF850FF6EFA5012002FBA45
:10EECE006BEF77F06FEF77F0076A072A70EF77F046
:10EEDE00076A0750020D310EF324D96E050EF42089
:10EEEE00DA6E02D885EF77F00500FA6EDE50FD6E11
:10EEFE00DE50FE6EF850FF6EFA5012002FBC8AEFF5
:10EF0E0077F08EEF77F0076A072A8FEF77F0076AB0
:10EF1E000750020D310EF324D96E050EF420DA6E71
:10EF2E0002D8A4EF77F00500FA6EDE50FD6EDE50CB
:10EF3E00FE6EF850FF6EFA5012002FBEA9EF77F05A
:10EF4E00ADEF77F0076A072AAEEF77F0076A075042
:10EF5E00020D310EF324D96E050EF420DA6E02D8AE
:10EF6E00C3EF77F00500FA6EDE50FD6EDE50FE6EDA
:10EF7E00F850FF6EFA50120030B0C8EF77F0CCEFB9
:10EF8E0077F0076A072ACDEF77F0076A0750020D70
:10EF9E00310EF324D96E050EF420DA6E02D8E2EFAC
:10EFAE0077F00500FA6EDE50FD6EDE50FE6EF85004
:10EFBE00FF6EFA50120030B2E7EF77F0EBEF77F01A
:10EFCE00076A072AECEF77F0076A0750020D310E39
:10EFDE00F324D96E050EF420DA6E02D801EF78F024
:10EFEE000500FA6EDE50FD6EDE50FE6EF850FF6EBE
:10EFFE00FA50120030B406EF78F00AEF78F0076A94
:10F00E00072A0BEF78F0076A0750020D310EF32432
:10F01E00D96E050EF420DA6E02D820EF78F00500D6
:10F02E00FA6EDE50FD6EDE50FE6EF850FF6EFA5038
:10F03E00120030B625EF78F029EF78F0076A072A2C
:10F04E002AEF78F0076A0750020D310EF324D96EBD
:10F05E00050EF420DA6E02D83FEF78F00500FA6E56
:10F06E00DE50FD6EDE50FE6EF850FF6EFA5012004E
:10F07E0030B844EF78F048EF78F0076A072A49EF86
:10F08E0078F0076A0750020D310EF324D96E050E83
:10F09E00F420DA6E02D85EEF78F00500FA6EDE50DC
:10F0AE00FD6EDE50FE6EF850FF6EFA50120030BA52
:10F0BE0063EF78F067EF78F0076A072A68EF78F069
:10F0CE00076A0750020D310EF324D96E050EF42097
:10F0DE00DA6E02D87DEF78F00500FA6EDE50FD6E26
:10F0EE00DE50FE6EF850FF6EFA50120030BC82EF0A
:10F0FE0078F086EF78F0076A072A87EF78F0076ACC
:10F10E000750020D310EF324D96E050EF420DA6E7F
:10F11E0002D89CEF78F00500FA6EDE50FD6EDE50E0
:10F12E00FE6EF850FF6EFA50120030BEA1EF78F06E
:10F13E00A5EF78F0076A072AA6EF78F0076A07505E
:10F14E00020D310EF324D96E050EF420DA6E02D8BC
:10F15E00BBEF78F00500FA6EDE50FD6EDE50FE6EEF
:10F16E00F850FF6EFA5012002EB0C0EF78F0C4EFD8
:10F17E0078F0076A072AC5EF78F0076A0750020D84
:10F18E00310EF324D96E050EF420DA6E02D8DAEFC2
:10F19E0078F00500FA6EDE50FD6EDE50FE6EF85011
:10F1AE00FF6EFA5012002EB2DFEF78F0E3EF78F038
:10F1BE00076A072AE4EF78F0076A0750020D310E4E
:10F1CE00F324D96E050EF420DA6E02D8F9EF78F03A
:10F1DE000500FA6EDE50FD6EDE50FE6EF850FF6ECC
:10F1EE00FA5012002EB4FEEF78F002EF79F0076AB3
:10F1FE00072A03EF79F0076A0750020D310EF32448
:10F20E00D96E050EF420DA6E02D818EF79F00500EB
:10F21E00FA6EDE50FD6EDE50FE6EF850FF6EFA5046
:10F22E0012002EB61DEF79F021EF79F0076A072A4A
:10F23E0022EF79F0076A0750020D310EF324D96ED2
:10F24E00050EF420DA6E02D837EF79F00500FA6E6B
:10F25E00DE50FD6EDE50FE6EF850FF6EFA5012005C
:10F26E002EB83CEF79F040EF79F0076A072A41EFAC
:10F27E0079F0076A0750020D310EF324D96E050E90
:10F28E00F420DA6E02D856EF79F00500FA6EDE50F1
:10F29E00FD6EDE50FE6EF850FF6EFA5012002EBA62
:10F2AE005BEF79F05FEF79F0076A072A60EF79F08C
:10F2BE00076A0750020D310EF324D96E050EF420A5
:10F2CE00DA6E02D875EF79F00500FA6EDE50FD6E3B
:10F2DE00DE50FE6EF850FF6EFA5012002EBC7AEF22
:10F2EE0079F07EEF79F0076A072A7FEF79F0076AE7
:10F2FE000750020D310EF324D96E050EF420DA6E8E
:10F30E0002D894EF79F00500FA6EDE50FD6EDE50F5
:10F31E00FE6EF850FF6EFA5012002EBE99EF79F085
:10F32E009DEF79F0076A072A9EEF79F0076A07507A
:10F33E00020D310EF324D96E050EF420DA6E02D8CA
:10F34E00B3EF79F00500FA6EDE50FD6EDE50FE6E04
:10F35E00F850FF6EFA5012001200000E0B6E000EE7
:10F36E000A6E000E026E0168000E046E000E036E31
:10F37E00000E066E000E056ED6EC73F0000E026ED9
:10F38E000168000E046EA50E036E000E066E000ED2
:10F39E00056ED6EC73F0000E026E0168000E046E60
:10F3AE000368000E066E000E056ED6EC73F0000EAE
:10F3BE00026E000E016E000E046E0368000E066EE5
:10F3CE00000E056ED6EC73F0000E026E000E016E8E
:10F3DE00000E046E0368000E066E0568D6EC73F020
:10F3EE00000E026E000E016E000E046E000E036E15
:10F3FE00000E066E0568D6EC73F0000E026E016804
:10F40E00000E046E000E036E000E066E0568D6EC3E
:10F41E0073F00A4A0B2A0BBE1EEF7AF00B5009E16D
:10F42E000A0E0A5CD8A01EEF7AF020EF7AF0B8EF41
:10F43E0079F0000E0D6E000E0C6E000E026E01685D
:10F44E00000E046E000E036E000E066E000E056EAC
:10F45E00C5EC76F0000E026E0168000E046EA50E6D
:10F46E00036E000E066E000E056EC5EC76F0000EF5
:10F47E00026E0168000E046E0368000E066E000E2A
:10F48E00056EC5EC76F0000E026E000E016E000EDB
:10F49E00046E0368000E066E000E056EC5EC76F067
:10F4AE00000E026E000E016E000E046E0368000E5A
:10F4BE00066E0568C5EC76F0000E026E000E016E4B
:10F4CE00000E046E000E036E000E066E0568C5EC8F
:10F4DE0076F0000E026E0168000E046E000E036ED2
:10F4EE00000E066E0568C5EC76F00C4A0D2A0DBEB0
:10F4FE008AEF7AF00D5009E10A0E0C5CD8A08AEF63
:10F50E007AF08CEF7AF024EF7AF0030E096E8A0E01
:10F51E00086E560EE82EFED7082EFCD7092EFAD707
:10F52E00000E0F6E000E0E6E000E026E0168000EC3
:10F53E00046EA50E036E000E066E000E056ED6EC62
:10F54E0073F0000E026E0168000E046E0368000E6A
:10F55E00066E000E056ED6EC73F0000E026E000EF7
:10F56E00016E000E046E0368000E066E000E056E30
:10F57E00D6EC73F0000E026E000E016E000E046EDD
:10F58E000368000E066E0568D6EC73F0000E026E70
:10F59E00000E016E000E046E000E036E000E066E5F
:10F5AE000568D6EC73F0000E026E0168000E046E54
:10F5BE00000E036E000E066E0568D6EC73F0000E9C
:10F5CE00026E0168000E046E000E036E000E066ED3
:10F5DE00000E056ED6EC73F00E4A0F2A0FBE01EF29
:10F5EE007BF00F5009E10A0E0E5CD8A001EF7BF004
:10F5FE0003EF7BF09BEF7AF0000E116E000E106E93
:10F60E00000E026E0168000E046EA50E036E000E53
:10F61E00066E000E056EC5EC76F0000E026E0168E9
:10F62E00000E046E0368000E066E000E056EC5EC2D
:10F63E0076F0000E026E000E016E000E046E036870
:10F64E00000E066E000E056EC5EC76F0000E026E14
:10F65E00000E016E000E046E0368000E066E056845
:10F66E00C5EC76F0000E026E000E016E000E046EFA
:10F67E00000E036E000E066E0568C5EC76F0000EE9
:10F68E00026E0168000E046E000E036E000E066E12
:10F69E000568C5EC76F0000E026E0168000E046E71
:10F6AE00000E036E000E066E000E056EC5EC76F0B3
:10F6BE00104A112A11BE6DEF7BF0115009E10A0EAE
:10F6CE00105CD8A06DEF7BF06FEF7BF007EF7BF057
:10F6DE00030E096E8A0E086E560EE82EFED7082E01
:10F6EE00FCD7092EFAD7000E136E000E126E000E06
:10F6FE00026E0168000E046E0368000E066E000EA8
:10F70E00056ED6EC73F0000E026E000E016E000E4A
:10F71E00046E0368000E066E000E056ED6EC73F0D6
:10F72E00000E026E000E016E000E046E0368000ED7
:10F73E00066E0568D6EC73F0000E026E000E016EBA
:10F74E00000E046E000E036E000E066E0568D6ECFB
:10F75E0073F0000E026E0168000E046E000E036E52
:10F76E00000E066E0568D6EC73F0000E026E016890
:10F77E00000E046E000E036E000E066E000E056E79
:10F78E00D6EC73F0000E026E0168000E046EA50E2C
:10F79E00036E000E066E000E056ED6EC73F0124A66
:10F7AE00132A13BEE4EF7BF0135009E10A0E125C2C
:10F7BE00D8A0E4EF7BF0E6EF7BF07EEF7BF0000E5F
:10F7CE00156E000E146E000E026E0168000E046EB1
:10F7DE000368000E066E000E056EC5EC76F0000E88
:10F7EE00026E000E016E000E046E0368000E066EB1
:10F7FE00000E056EC5EC76F0000E026E000E016E68
:10F80E00000E046E0368000E066E0568C5EC76F0F9
:10F81E00000E026E000E016E000E046E000E036EE0
:10F82E00000E066E0568C5EC76F0000E026E0168DD
:10F83E00000E046E000E036E000E066E0568C5EC1B
:10F84E0076F0000E026E0168000E046E000E036E5E
:10F85E00000E066E000E056EC5EC76F0000E026E02
:10F86E000168000E046EA50E036E000E066E000EED
:10F87E00056EC5EC76F0144A152A15BE50EF7CF0D5
:10F88E00155009E10A0E145CD8A050EF7CF052EF2F
:10F89E007CF0EAEF7BF0030E096E8A0E086E560EB0
:10F8AE00E82EFED7082EFCD7092EFAD7000E176EBB
:10F8BE00000E166E000E026E000E016E000E046E2D
:10F8CE000368000E066E000E056ED6EC73F0000E89
:10F8DE00026E000E016E000E046E0368000E066EC0
:10F8EE000568D6EC73F0000E026E000E016E000E6F
:10F8FE00046E000E036E000E066E0568D6EC73F0F5
:10F90E00000E026E0168000E046E000E036E000EF5
:10F91E00066E0568D6EC73F0000E026E0168000EDE
:10F92E00046E000E036E000E066E000E056ED6EC13
:10F93E0073F0000E026E0168000E046EA50E036ECB
:10F94E00000E066E000E056ED6EC73F0000E026E03
:10F95E000168000E046E0368000E066E000E056E42
:10F96E00D6EC73F0164A172A17BEC7EF7CF0175065
:10F97E0009E10A0E165CD8A0C7EF7CF0C9EF7CF047
:10F98E0061EF7CF0000E196E000E186E000E026E06
:10F99E00000E016E000E046E0368000E066E000E61
:10F9AE00056EC5EC76F0000E026E000E016E000EB6
:10F9BE00046E0368000E066E0568C5EC76F0000E48
:10F9CE00026E000E016E000E046E000E036E000E2F
:10F9DE00066E0568C5EC76F0000E026E0168000E2C
:10F9EE00046E000E036E000E066E0568C5EC76F012
:10F9FE00000E026E0168000E046E000E036E000E05
:10FA0E00066E000E056EC5EC76F0000E026E0168F5
:10FA1E00000E046EA50E036E000E066E000E056E31
:10FA2E00C5EC76F0000E026E0168000E046E0368DF
:10FA3E00000E066E000E056EC5EC76F0184A192AF9
:10FA4E0019BE33EF7DF0195009E10A0E185CD8A0EB
:10FA5E0033EF7DF035EF7DF0CDEF7CF0030E096EC8
:10FA6E008A0E086E560EE82EFED7082EFCD7092EEB
:10FA7E00FAD7000E1B6E000E1A6E000E026E000EEE
:10FA8E00016E000E046E0368000E066E0568D6EC5D
:10FA9E0073F0000E026E000E016E000E046E000E6C
:10FAAE00036E000E066E0568D6EC73F0000E026E45
:10FABE000168000E046E000E036E000E066E0568E1
:10FACE00D6EC73F0000E026E0168000E046E000E8E
:10FADE00036E000E066E000E056ED6EC73F0000E71
:10FAEE00026E0168000E046EA50E036E000E066E09
:10FAFE00000E056ED6EC73F0000E026E0168000E5D
:10FB0E00046E0368000E066E000E056ED6EC73F0E2
:10FB1E00000E026E000E016E000E046E0368000EE3
:10FB2E00066E000E056ED6EC73F01A4A1B2A1BBE2B
:10FB3E00AAEF7DF01B5009E10A0E1A5CD8A0AAEFBD
:10FB4E007DF0ACEF7DF044EF7DF0000E1D6E000EEB
:10FB5E001C6E1DBEBCEF7DF01D5009E10A0E1C5C33
:10FB6E00D8A0BCEF7DF0BEEF7DF0C0EF7DF01CEFB6
:10FB7E007EF0000E026E000E016E000E046E036823
:10FB8E00000E066E0568C5EC76F0000E026E000ED5
:10FB9E00016E000E046E000E036E000E066E0568FA
:10FBAE00C5EC76F0000E026E0168000E046E000EBB
:10FBBE00036E000E066E0568C5EC76F0000E026E42
:10FBCE000168000E046E000E036E000E066E000E2F
:10FBDE00056EC5EC76F0000E026E0168000E046E26
:10FBEE00A50E036E000E066E000E056EC5EC76F0C9
:10FBFE00000E026E0168000E046E0368000E066EA3
:10FC0E00000E056EC5EC76F0000E026E000E016E53
:10FC1E00000E046E0368000E066E000E056EC5EC37
:10FC2E0076F01C4A1D2AB0EF7DF0030E096E8A0E87
:10FC3E00086E560EE82EFED7082EFCD7092EFAD7E0
:10FC4E00000E1F6E000E1E6E1FBE37EF7EF01F5091
:10FC5E0009E10A0E1E5CD8A037EF7EF039EF7EF078
:10FC6E003BEF7EF097EF7EF0000E026E000E016EFF
:10FC7E00000E046E000E036E000E066E0568D6ECC6
:10FC8E0073F0000E026E0168000E046E000E036E1D
:10FC9E00000E066E0568D6EC73F0000E026E01685B
:10FCAE00000E046E000E036E000E066E000E056E44
:10FCBE00D6EC73F0000E026E0168000E046EA50EF7
:10FCCE00036E000E066E000E056ED6EC73F0000E7F
:10FCDE00026E0168000E046E0368000E066E000EC2
:10FCEE00056ED6EC73F0000E026E000E016E000E65
:10FCFE00046E0368000E066E000E056ED6EC73F0F1
:10FD0E00000E026E000E016E000E046E0368000EF1
:10FD1E00066E0568D6EC73F01E4A1F2A2BEF7EF096
:10FD2E00000E216E000E206E21BEA7EF7EF0215038
:10FD3E0009E10A0E205CD8A0A7EF7EF0A9EF7EF0B5
:10FD4E00ABEF7EF007EF7FF0000E026E000E016E3D
:10FD5E00000E046E000E036E000E066E0568C5ECF6
:10FD6E0076F0000E026E0168000E046E000E036E39
:10FD7E00000E066E0568C5EC76F0000E026E016888
:10FD8E00000E046E000E036E000E066E000E056E63
:10FD9E00C5EC76F0000E026E0168000E046EA50E24
:10FDAE00036E000E066E000E056EC5EC76F0000EAC
:10FDBE00026E0168000E046E0368000E066E000EE1
:10FDCE00056EC5EC76F0000E026E000E016E000E92
:10FDDE00046E0368000E066E000E056EC5EC76F01E
:10FDEE00000E026E000E016E000E046E0368000E11
:10FDFE00066E0568C5EC76F0204A212A9BEF7EF050
:10FE0E00030E096E8A0E086E560EE82EFED7082EC9
:10FE1E00FCD7092EFAD7000E236E000E226E23BEDB
:10FE2E0022EF7FF0235009E10A0E225CD8A022EFC8
:10FE3E007FF024EF7FF026EF7FF082EF7FF0000E51
:10FE4E00026E0168000E046E000E036E000E066E4A
:10FE5E000568D6EC73F0000E026E0168000E046E9B
:10FE6E00000E036E000E066E000E056ED6EC73F0DD
:10FE7E00000E026E0168000E046EA50E036E000EDB
:10FE8E00066E000E056ED6EC73F0000E026E016863
:10FE9E00000E046E0368000E066E000E056ED6ECA4
:10FEAE0073F0000E026E000E016E000E046E0368FB
:10FEBE00000E066E000E056ED6EC73F0000E026E8E
:10FECE00000E016E000E046E0368000E066E0568CD
:10FEDE00D6EC73F0000E026E000E016E000E046E74
:10FEEE00000E036E000E066E0568D6EC73F0224A05
:10FEFE00232A16EF7FF0000E256E000E246E25BE0F
:10FF0E0092EF7FF0255009E10A0E245CD8A092EF03
:10FF1E007FF094EF7FF096EF7FF0F2EF7FF0000E20
:10FF2E00026E0168000E046E000E036E000E066E69
:10FF3E000568C5EC76F0000E026E0168000E046EC8
:10FF4E00000E036E000E066E000E056EC5EC76F00A
:10FF5E00000E026E0168000E046EA50E036E000EFA
:10FF6E00066E000E056EC5EC76F0000E026E016890
:10FF7E00000E046E0368000E066E000E056EC5ECD4
:10FF8E0076F0000E026E000E016E000E046E036817
:10FF9E00000E066E000E056EC5EC76F0000E026EBB
:10FFAE00000E016E000E046E0368000E066E0568EC
:10FFBE00C5EC76F0000E026E000E016E000E046EA1
:10FFCE00000E036E000E066E0568C5EC76F0244A30
:10FFDE00252A86EF7FF0030E096E8A0E086E560EE6
:10FFEE00E82EFED7082EFCD7092EFAD712006DEF99
:02FFFE006FF0A2
:020000040020DA
:10000000FF0FFF0FFF0FFF0FFF0FFF0FFF0FFF0F80
:10001000FF0FFF0FFF0FFF0FFF0FFF0FFF0FFF0F70
:10002000FF0FFF0FFF0FFF0FFF0FFF0FFF0FFF0F60
:10003000FF0FFF0FFF0FFF0FFF0FFF0FFF0FFF0F50
:020000040030CA
:10000000AAEFF7FF9FFFFFFFFFFFFFFFFFFFFFFFCD
:10001000FFFFFFFFFFFFFFFFFFFFFFFFFFFFFFFFF0
:04002000FFFFFFFFE0
:00000001FF
